{
  "_format": "hh-sol-artifact-1",
  "contractName": "Gemz",
  "sourceName": "contracts/Gemz.sol",
  "abi": [
    {
      "inputs": [],
      "stateMutability": "nonpayable",
      "type": "constructor"
    },
    {
      "anonymous": false,
      "inputs": [
        {
          "indexed": false,
          "internalType": "address",
          "name": "_artistAddress",
          "type": "address"
        },
        {
          "indexed": false,
          "internalType": "uint256",
          "name": "_amount",
          "type": "uint256"
        },
        {
          "indexed": false,
          "internalType": "address",
          "name": "_donorAddr",
          "type": "address"
        }
      ],
      "name": "Donate",
      "type": "event"
    },
    {
      "anonymous": false,
      "inputs": [
        {
          "indexed": true,
          "internalType": "address",
          "name": "previousOwner",
          "type": "address"
        },
        {
          "indexed": true,
          "internalType": "address",
          "name": "newOwner",
          "type": "address"
        }
      ],
      "name": "OwnershipTransferred",
      "type": "event"
    },
    {
      "anonymous": false,
      "inputs": [
        {
          "indexed": false,
          "internalType": "address",
          "name": "_artist",
          "type": "address"
        },
        {
          "indexed": false,
          "internalType": "string",
          "name": "_songHash",
          "type": "string"
        },
        {
          "indexed": false,
          "internalType": "uint256",
          "name": "_songId",
          "type": "uint256"
        }
      ],
      "name": "Uploaded",
      "type": "event"
    },
    {
      "inputs": [
        {
          "internalType": "uint256",
          "name": "id",
          "type": "uint256"
        }
      ],
      "name": "donate",
      "outputs": [],
      "stateMutability": "payable",
      "type": "function"
    },
    {
      "inputs": [],
      "name": "owner",
      "outputs": [
        {
          "internalType": "address",
          "name": "",
          "type": "address"
        }
      ],
      "stateMutability": "view",
      "type": "function"
    },
    {
      "inputs": [],
      "name": "renounceOwnership",
      "outputs": [],
      "stateMutability": "nonpayable",
      "type": "function"
    },
    {
      "inputs": [
        {
          "internalType": "uint256",
          "name": "",
          "type": "uint256"
        }
      ],
      "name": "songs",
      "outputs": [
        {
          "internalType": "uint256",
          "name": "id",
          "type": "uint256"
        },
        {
          "internalType": "string",
          "name": "songHash",
          "type": "string"
        },
        {
          "internalType": "string",
          "name": "coverHash",
          "type": "string"
        },
        {
          "internalType": "string",
          "name": "songTitle",
          "type": "string"
        },
        {
          "internalType": "string",
          "name": "artistName",
          "type": "string"
        },
        {
          "internalType": "address payable",
          "name": "artistAddress",
          "type": "address"
        }
      ],
      "stateMutability": "view",
      "type": "function"
    },
    {
      "inputs": [],
      "name": "songsCount",
      "outputs": [
        {
          "internalType": "uint256",
          "name": "",
          "type": "uint256"
        }
      ],
      "stateMutability": "view",
      "type": "function"
    },
    {
      "inputs": [
        {
          "internalType": "address",
          "name": "newOwner",
          "type": "address"
        }
      ],
      "name": "transferOwnership",
      "outputs": [],
      "stateMutability": "nonpayable",
      "type": "function"
    },
    {
      "inputs": [
        {
          "internalType": "string",
          "name": "_songHash",
          "type": "string"
        },
        {
          "internalType": "string",
          "name": "_coverHash",
          "type": "string"
        },
        {
          "internalType": "string",
          "name": "_songTitle",
          "type": "string"
        },
        {
          "internalType": "string",
          "name": "_artistName",
          "type": "string"
        }
      ],
      "name": "uploadFile",
      "outputs": [],
      "stateMutability": "nonpayable",
      "type": "function"
    }
  ],
  "bytecode": "0x608060405234801561001057600080fd5b5061002d61002261003a60201b60201c565b61004260201b60201c565b6000600181905550610106565b600033905090565b60008060009054906101000a900473ffffffffffffffffffffffffffffffffffffffff169050816000806101000a81548173ffffffffffffffffffffffffffffffffffffffff021916908373ffffffffffffffffffffffffffffffffffffffff1602179055508173ffffffffffffffffffffffffffffffffffffffff168173ffffffffffffffffffffffffffffffffffffffff167f8be0079c531659141344cd1fd0a4f28419497f9722a3daafe3b4186f6b6457e060405160405180910390a35050565b61154c806101156000396000f3fe6080604052600436106100705760003560e01c80638da5cb5b1161004e5780638da5cb5b146100f9578063f0286d4614610124578063f14faf6f1461014d578063f2fde38b1461016957610070565b8063304cff30146100755780634e8172b8146100b7578063715018a6146100e2575b600080fd5b34801561008157600080fd5b5061009c60048036038101906100979190610dc2565b610192565b6040516100ae96959493929190611092565b60405180910390f35b3480156100c357600080fd5b506100cc61040e565b6040516100d99190611077565b60405180910390f35b3480156100ee57600080fd5b506100f7610414565b005b34801561010557600080fd5b5061010e61049c565b60405161011b9190610f47565b60405180910390f35b34801561013057600080fd5b5061014b60048036038101906101469190610cff565b6104c5565b005b61016760048036038101906101629190610dc2565b610739565b005b34801561017557600080fd5b50610190600480360381019061018b9190610cd6565b610953565b005b60026020528060005260406000206000915090508060000154908060010180546101bb906112a8565b80601f01602080910402602001604051908101604052809291908181526020018280546101e7906112a8565b80156102345780601f1061020957610100808354040283529160200191610234565b820191906000526020600020905b81548152906001019060200180831161021757829003601f168201915b505050505090806002018054610249906112a8565b80601f0160208091040260200160405190810160405280929190818152602001828054610275906112a8565b80156102c25780601f10610297576101008083540402835291602001916102c2565b820191906000526020600020905b8154815290600101906020018083116102a557829003601f168201915b5050505050908060030180546102d7906112a8565b80601f0160208091040260200160405190810160405280929190818152602001828054610303906112a8565b80156103505780601f1061032557610100808354040283529160200191610350565b820191906000526020600020905b81548152906001019060200180831161033357829003601f168201915b505050505090806004018054610365906112a8565b80601f0160208091040260200160405190810160405280929190818152602001828054610391906112a8565b80156103de5780601f106103b3576101008083540402835291602001916103de565b820191906000526020600020905b8154815290600101906020018083116103c157829003601f168201915b5050505050908060050160009054906101000a900473ffffffffffffffffffffffffffffffffffffffff16905086565b60015481565b61041c610a4b565b73ffffffffffffffffffffffffffffffffffffffff1661043a61049c565b73ffffffffffffffffffffffffffffffffffffffff1614610490576040517f08c379a000000000000000000000000000000000000000000000000000000000815260040161048790611037565b60405180910390fd5b61049a6000610a53565b565b60008060009054906101000a900473ffffffffffffffffffffffffffffffffffffffff16905090565b6000845111610509576040517f08c379a000000000000000000000000000000000000000000000000000000000815260040161050090611017565b60405180910390fd5b6040518060e0016040528060018054610522919061118c565b81526020018581526020018481526020018381526020018281526020013373ffffffffffffffffffffffffffffffffffffffff168152602001600067ffffffffffffffff81111561059c577f4e487b7100000000000000000000000000000000000000000000000000000000600052604160045260246000fd5b6040519080825280602002602001820160405280156105ca5781602001602082028036833780820191505090505b5081525060026000600180546105e0919061118c565b8152602001908152602001600020600082015181600001556020820151816001019080519060200190610614929190610b17565b506040820151816002019080519060200190610631929190610b17565b50606082015181600301908051906020019061064e929190610b17565b50608082015181600401908051906020019061066b929190610b17565b5060a08201518160050160006101000a81548173ffffffffffffffffffffffffffffffffffffffff021916908373ffffffffffffffffffffffffffffffffffffffff16021790555060c08201518160060190805190602001906106cf929190610b9d565b50905050600160008154809291906106e69061130b565b91905055507f17315ecec671b32f6749c596e20282759bbafba9107d5bf81c522f8033505f7433856001805461071c919061118c565b60405161072b93929190610f99565b60405180910390a150505050565b6000341161074657600080fd5b60006002600083815260200190815260200160002060050160009054906101000a900473ffffffffffffffffffffffffffffffffffffffff1690508073ffffffffffffffffffffffffffffffffffffffff163373ffffffffffffffffffffffffffffffffffffffff1614156107f0576040517f08c379a00000000000000000000000000000000000000000000000000000000081526004016107e790610fd7565b60405180910390fd5b60008173ffffffffffffffffffffffffffffffffffffffff163460405161081690610f32565b60006040518083038185875af1925050503d8060008114610853576040519150601f19603f3d011682016040523d82523d6000602084013e610858565b606091505b505090508061089c576040517f08c379a000000000000000000000000000000000000000000000000000000000815260040161089390611057565b60405180910390fd5b60026000848152602001908152602001600020600601339080600181540180825580915050600190039060005260206000200160009091909190916101000a81548173ffffffffffffffffffffffffffffffffffffffff021916908373ffffffffffffffffffffffffffffffffffffffff1602179055507f8f11dba2544ce43eca352413d917b518dcd4eadce072e46e3f53cc63543b22d782343360405161094693929190610f62565b60405180910390a1505050565b61095b610a4b565b73ffffffffffffffffffffffffffffffffffffffff1661097961049c565b73ffffffffffffffffffffffffffffffffffffffff16146109cf576040517f08c379a00000000000000000000000000000000000000000000000000000000081526004016109c690611037565b60405180910390fd5b600073ffffffffffffffffffffffffffffffffffffffff168173ffffffffffffffffffffffffffffffffffffffff161415610a3f576040517f08c379a0000000000000000000000000000000000000000000000000000000008152600401610a3690610ff7565b60405180910390fd5b610a4881610a53565b50565b600033905090565b60008060009054906101000a900473ffffffffffffffffffffffffffffffffffffffff169050816000806101000a81548173ffffffffffffffffffffffffffffffffffffffff021916908373ffffffffffffffffffffffffffffffffffffffff1602179055508173ffffffffffffffffffffffffffffffffffffffff168173ffffffffffffffffffffffffffffffffffffffff167f8be0079c531659141344cd1fd0a4f28419497f9722a3daafe3b4186f6b6457e060405160405180910390a35050565b828054610b23906112a8565b90600052602060002090601f016020900481019282610b455760008555610b8c565b82601f10610b5e57805160ff1916838001178555610b8c565b82800160010185558215610b8c579182015b82811115610b8b578251825591602001919060010190610b70565b5b509050610b999190610c27565b5090565b828054828255906000526020600020908101928215610c16579160200282015b82811115610c155782518260006101000a81548173ffffffffffffffffffffffffffffffffffffffff021916908373ffffffffffffffffffffffffffffffffffffffff16021790555091602001919060010190610bbd565b5b509050610c239190610c27565b5090565b5b80821115610c40576000816000905550600101610c28565b5090565b6000610c57610c5284611134565b61110f565b905082815260208101848484011115610c6f57600080fd5b610c7a848285611266565b509392505050565b600081359050610c91816114e8565b92915050565b600082601f830112610ca857600080fd5b8135610cb8848260208601610c44565b91505092915050565b600081359050610cd0816114ff565b92915050565b600060208284031215610ce857600080fd5b6000610cf684828501610c82565b91505092915050565b60008060008060808587031215610d1557600080fd5b600085013567ffffffffffffffff811115610d2f57600080fd5b610d3b87828801610c97565b945050602085013567ffffffffffffffff811115610d5857600080fd5b610d6487828801610c97565b935050604085013567ffffffffffffffff811115610d8157600080fd5b610d8d87828801610c97565b925050606085013567ffffffffffffffff811115610daa57600080fd5b610db687828801610c97565b91505092959194509250565b600060208284031215610dd457600080fd5b6000610de284828501610cc1565b91505092915050565b610df481611230565b82525050565b610e03816111f4565b82525050565b610e12816111e2565b82525050565b6000610e2382611165565b610e2d818561117b565b9350610e3d818560208601611275565b610e46816113e1565b840191505092915050565b6000610e5e601d8361117b565b9150610e69826113f2565b602082019050919050565b6000610e8160268361117b565b9150610e8c8261141b565b604082019050919050565b6000610ea460168361117b565b9150610eaf8261146a565b602082019050919050565b6000610ec760208361117b565b9150610ed282611493565b602082019050919050565b6000610eea600083611170565b9150610ef5826114bc565b600082019050919050565b6000610f0d60148361117b565b9150610f18826114bf565b602082019050919050565b610f2c81611226565b82525050565b6000610f3d82610edd565b9150819050919050565b6000602082019050610f5c6000830184610e09565b92915050565b6000606082019050610f776000830186610deb565b610f846020830185610f23565b610f916040830184610e09565b949350505050565b6000606082019050610fae6000830186610e09565b8181036020830152610fc08185610e18565b9050610fcf6040830184610f23565b949350505050565b60006020820190508181036000830152610ff081610e51565b9050919050565b6000602082019050818103600083015261101081610e74565b9050919050565b6000602082019050818103600083015261103081610e97565b9050919050565b6000602082019050818103600083015261105081610eba565b9050919050565b6000602082019050818103600083015261107081610f00565b9050919050565b600060208201905061108c6000830184610f23565b92915050565b600060c0820190506110a76000830189610f23565b81810360208301526110b98188610e18565b905081810360408301526110cd8187610e18565b905081810360608301526110e18186610e18565b905081810360808301526110f58185610e18565b905061110460a0830184610dfa565b979650505050505050565b600061111961112a565b905061112582826112da565b919050565b6000604051905090565b600067ffffffffffffffff82111561114f5761114e6113b2565b5b611158826113e1565b9050602081019050919050565b600081519050919050565b600081905092915050565b600082825260208201905092915050565b600061119782611226565b91506111a283611226565b9250827fffffffffffffffffffffffffffffffffffffffffffffffffffffffffffffffff038211156111d7576111d6611354565b5b828201905092915050565b60006111ed82611206565b9050919050565b60006111ff82611206565b9050919050565b600073ffffffffffffffffffffffffffffffffffffffff82169050919050565b6000819050919050565b600061123b82611242565b9050919050565b600061124d82611254565b9050919050565b600061125f82611206565b9050919050565b82818337600083830152505050565b60005b83811015611293578082015181840152602081019050611278565b838111156112a2576000848401525b50505050565b600060028204905060018216806112c057607f821691505b602082108114156112d4576112d3611383565b5b50919050565b6112e3826113e1565b810181811067ffffffffffffffff82111715611302576113016113b2565b5b80604052505050565b600061131682611226565b91507fffffffffffffffffffffffffffffffffffffffffffffffffffffffffffffffff82141561134957611348611354565b5b600182019050919050565b7f4e487b7100000000000000000000000000000000000000000000000000000000600052601160045260246000fd5b7f4e487b7100000000000000000000000000000000000000000000000000000000600052602260045260246000fd5b7f4e487b7100000000000000000000000000000000000000000000000000000000600052604160045260246000fd5b6000601f19601f8301169050919050565b7f596f752063616e6e6f7420646f6e61746520746f20796f757273656c66000000600082015250565b7f4f776e61626c653a206e6577206f776e657220697320746865207a65726f206160008201527f6464726573730000000000000000000000000000000000000000000000000000602082015250565b7f536f6e672068617368206973206e6f742076616c696400000000000000000000600082015250565b7f4f776e61626c653a2063616c6c6572206973206e6f7420746865206f776e6572600082015250565b50565b7f6661696c656420746f2073656e64204574686572000000000000000000000000600082015250565b6114f1816111e2565b81146114fc57600080fd5b50565b61150881611226565b811461151357600080fd5b5056fea26469706673582212206a0de863f6efb386ee712d5be91fa4d6f6f6f9e0488e6a41403e59ff191437b364736f6c63430008040033",
  "linkReferences": {},
  "deployedLinkReferences": {}
}