{
  "_format": "hh-sol-artifact-1",
  "contractName": "Gemz",
  "sourceName": "contracts/Gemz.sol",
  "abi": [
    {
      "inputs": [],
      "stateMutability": "nonpayable",
      "type": "constructor"
    },
    {
      "anonymous": false,
      "inputs": [
        {
          "indexed": false,
          "internalType": "address",
          "name": "_artistAddress",
          "type": "address"
        },
        {
          "indexed": false,
          "internalType": "uint256",
          "name": "_amount",
          "type": "uint256"
        },
        {
          "indexed": false,
          "internalType": "address",
          "name": "_donorAddr",
          "type": "address"
        }
      ],
      "name": "Donate",
      "type": "event"
    },
    {
      "anonymous": false,
      "inputs": [
        {
          "indexed": true,
          "internalType": "address",
          "name": "previousOwner",
          "type": "address"
        },
        {
          "indexed": true,
          "internalType": "address",
          "name": "newOwner",
          "type": "address"
        }
      ],
      "name": "OwnershipTransferred",
      "type": "event"
    },
    {
      "anonymous": false,
      "inputs": [
        {
          "indexed": false,
          "internalType": "address",
          "name": "_artist",
          "type": "address"
        },
        {
          "indexed": false,
          "internalType": "string",
          "name": "_songHash",
          "type": "string"
        },
        {
          "indexed": false,
          "internalType": "uint256",
          "name": "_songId",
          "type": "uint256"
        }
      ],
      "name": "Uploaded",
      "type": "event"
    },
    {
      "inputs": [
        {
          "internalType": "uint256",
          "name": "id",
          "type": "uint256"
        }
      ],
      "name": "donate",
      "outputs": [],
      "stateMutability": "payable",
      "type": "function"
    },
    {
      "inputs": [],
      "name": "owner",
      "outputs": [
        {
          "internalType": "address",
          "name": "",
          "type": "address"
        }
      ],
      "stateMutability": "view",
      "type": "function"
    },
    {
      "inputs": [],
      "name": "renounceOwnership",
      "outputs": [],
      "stateMutability": "nonpayable",
      "type": "function"
    },
    {
      "inputs": [],
      "name": "songsCount",
      "outputs": [
        {
          "internalType": "uint256",
          "name": "",
          "type": "uint256"
        }
      ],
      "stateMutability": "view",
      "type": "function"
    },
    {
      "inputs": [
        {
          "internalType": "address",
          "name": "newOwner",
          "type": "address"
        }
      ],
      "name": "transferOwnership",
      "outputs": [],
      "stateMutability": "nonpayable",
      "type": "function"
    },
    {
      "inputs": [
        {
          "internalType": "string",
          "name": "_songHash",
          "type": "string"
        },
        {
          "internalType": "string",
          "name": "_coverHash",
          "type": "string"
        },
        {
          "internalType": "string",
          "name": "_songTitle",
          "type": "string"
        },
        {
          "internalType": "string",
          "name": "_artistName",
          "type": "string"
        }
      ],
      "name": "uploadFile",
      "outputs": [],
      "stateMutability": "nonpayable",
      "type": "function"
    }
  ],
  "bytecode": "0x608060405234801561001057600080fd5b5061002d61002261003a60201b60201c565b61004260201b60201c565b6000600181905550610106565b600033905090565b60008060009054906101000a900473ffffffffffffffffffffffffffffffffffffffff169050816000806101000a81548173ffffffffffffffffffffffffffffffffffffffff021916908373ffffffffffffffffffffffffffffffffffffffff1602179055508173ffffffffffffffffffffffffffffffffffffffff168173ffffffffffffffffffffffffffffffffffffffff167f8be0079c531659141344cd1fd0a4f28419497f9722a3daafe3b4186f6b6457e060405160405180910390a35050565b6111d5806101156000396000f3fe6080604052600436106100555760003560e01c80634e8172b81461005a578063715018a6146100855780638da5cb5b1461009c578063f0286d46146100c7578063f14faf6f146100f0578063f2fde38b1461010c575b600080fd5b34801561006657600080fd5b5061006f610135565b60405161007c9190610d8f565b60405180910390f35b34801561009157600080fd5b5061009a61013b565b005b3480156100a857600080fd5b506100b16101c3565b6040516100be9190610c5f565b60405180910390f35b3480156100d357600080fd5b506100ee60048036038101906100e99190610a26565b6101ec565b005b61010a60048036038101906101059190610ae9565b610460565b005b34801561011857600080fd5b50610133600480360381019061012e91906109fd565b61067a565b005b60015481565b610143610772565b73ffffffffffffffffffffffffffffffffffffffff166101616101c3565b73ffffffffffffffffffffffffffffffffffffffff16146101b7576040517f08c379a00000000000000000000000000000000000000000000000000000000081526004016101ae90610d4f565b60405180910390fd5b6101c1600061077a565b565b60008060009054906101000a900473ffffffffffffffffffffffffffffffffffffffff16905090565b6000845111610230576040517f08c379a000000000000000000000000000000000000000000000000000000000815260040161022790610d2f565b60405180910390fd5b6040518060e00160405280600180546102499190610e27565b81526020018581526020018481526020018381526020018281526020013373ffffffffffffffffffffffffffffffffffffffff168152602001600067ffffffffffffffff8111156102c3577f4e487b7100000000000000000000000000000000000000000000000000000000600052604160045260246000fd5b6040519080825280602002602001820160405280156102f15781602001602082028036833780820191505090505b5081525060026000600180546103079190610e27565b815260200190815260200160002060008201518160000155602082015181600101908051906020019061033b92919061083e565b50604082015181600201908051906020019061035892919061083e565b50606082015181600301908051906020019061037592919061083e565b50608082015181600401908051906020019061039292919061083e565b5060a08201518160050160006101000a81548173ffffffffffffffffffffffffffffffffffffffff021916908373ffffffffffffffffffffffffffffffffffffffff16021790555060c08201518160060190805190602001906103f69291906108c4565b509050506001600081548092919061040d90610f94565b91905055507f17315ecec671b32f6749c596e20282759bbafba9107d5bf81c522f8033505f743385600180546104439190610e27565b60405161045293929190610cb1565b60405180910390a150505050565b6000341161046d57600080fd5b60006002600083815260200190815260200160002060050160009054906101000a900473ffffffffffffffffffffffffffffffffffffffff1690508073ffffffffffffffffffffffffffffffffffffffff163373ffffffffffffffffffffffffffffffffffffffff161415610517576040517f08c379a000000000000000000000000000000000000000000000000000000000815260040161050e90610cef565b60405180910390fd5b60008173ffffffffffffffffffffffffffffffffffffffff163460405161053d90610c4a565b60006040518083038185875af1925050503d806000811461057a576040519150601f19603f3d011682016040523d82523d6000602084013e61057f565b606091505b50509050806105c3576040517f08c379a00000000000000000000000000000000000000000000000000000000081526004016105ba90610d6f565b60405180910390fd5b60026000848152602001908152602001600020600601339080600181540180825580915050600190039060005260206000200160009091909190916101000a81548173ffffffffffffffffffffffffffffffffffffffff021916908373ffffffffffffffffffffffffffffffffffffffff1602179055507f8f11dba2544ce43eca352413d917b518dcd4eadce072e46e3f53cc63543b22d782343360405161066d93929190610c7a565b60405180910390a1505050565b610682610772565b73ffffffffffffffffffffffffffffffffffffffff166106a06101c3565b73ffffffffffffffffffffffffffffffffffffffff16146106f6576040517f08c379a00000000000000000000000000000000000000000000000000000000081526004016106ed90610d4f565b60405180910390fd5b600073ffffffffffffffffffffffffffffffffffffffff168173ffffffffffffffffffffffffffffffffffffffff161415610766576040517f08c379a000000000000000000000000000000000000000000000000000000000815260040161075d90610d0f565b60405180910390fd5b61076f8161077a565b50565b600033905090565b60008060009054906101000a900473ffffffffffffffffffffffffffffffffffffffff169050816000806101000a81548173ffffffffffffffffffffffffffffffffffffffff021916908373ffffffffffffffffffffffffffffffffffffffff1602179055508173ffffffffffffffffffffffffffffffffffffffff168173ffffffffffffffffffffffffffffffffffffffff167f8be0079c531659141344cd1fd0a4f28419497f9722a3daafe3b4186f6b6457e060405160405180910390a35050565b82805461084a90610f31565b90600052602060002090601f01602090048101928261086c57600085556108b3565b82601f1061088557805160ff19168380011785556108b3565b828001600101855582156108b3579182015b828111156108b2578251825591602001919060010190610897565b5b5090506108c0919061094e565b5090565b82805482825590600052602060002090810192821561093d579160200282015b8281111561093c5782518260006101000a81548173ffffffffffffffffffffffffffffffffffffffff021916908373ffffffffffffffffffffffffffffffffffffffff160217905550916020019190600101906108e4565b5b50905061094a919061094e565b5090565b5b8082111561096757600081600090555060010161094f565b5090565b600061097e61097984610dcf565b610daa565b90508281526020810184848401111561099657600080fd5b6109a1848285610eef565b509392505050565b6000813590506109b881611171565b92915050565b600082601f8301126109cf57600080fd5b81356109df84826020860161096b565b91505092915050565b6000813590506109f781611188565b92915050565b600060208284031215610a0f57600080fd5b6000610a1d848285016109a9565b91505092915050565b60008060008060808587031215610a3c57600080fd5b600085013567ffffffffffffffff811115610a5657600080fd5b610a62878288016109be565b945050602085013567ffffffffffffffff811115610a7f57600080fd5b610a8b878288016109be565b935050604085013567ffffffffffffffff811115610aa857600080fd5b610ab4878288016109be565b925050606085013567ffffffffffffffff811115610ad157600080fd5b610add878288016109be565b91505092959194509250565b600060208284031215610afb57600080fd5b6000610b09848285016109e8565b91505092915050565b610b1b81610eb9565b82525050565b610b2a81610e7d565b82525050565b6000610b3b82610e00565b610b458185610e16565b9350610b55818560208601610efe565b610b5e8161106a565b840191505092915050565b6000610b76601d83610e16565b9150610b818261107b565b602082019050919050565b6000610b99602683610e16565b9150610ba4826110a4565b604082019050919050565b6000610bbc601683610e16565b9150610bc7826110f3565b602082019050919050565b6000610bdf602083610e16565b9150610bea8261111c565b602082019050919050565b6000610c02600083610e0b565b9150610c0d82611145565b600082019050919050565b6000610c25601483610e16565b9150610c3082611148565b602082019050919050565b610c4481610eaf565b82525050565b6000610c5582610bf5565b9150819050919050565b6000602082019050610c746000830184610b21565b92915050565b6000606082019050610c8f6000830186610b12565b610c9c6020830185610c3b565b610ca96040830184610b21565b949350505050565b6000606082019050610cc66000830186610b21565b8181036020830152610cd88185610b30565b9050610ce76040830184610c3b565b949350505050565b60006020820190508181036000830152610d0881610b69565b9050919050565b60006020820190508181036000830152610d2881610b8c565b9050919050565b60006020820190508181036000830152610d4881610baf565b9050919050565b60006020820190508181036000830152610d6881610bd2565b9050919050565b60006020820190508181036000830152610d8881610c18565b9050919050565b6000602082019050610da46000830184610c3b565b92915050565b6000610db4610dc5565b9050610dc08282610f63565b919050565b6000604051905090565b600067ffffffffffffffff821115610dea57610de961103b565b5b610df38261106a565b9050602081019050919050565b600081519050919050565b600081905092915050565b600082825260208201905092915050565b6000610e3282610eaf565b9150610e3d83610eaf565b9250827fffffffffffffffffffffffffffffffffffffffffffffffffffffffffffffffff03821115610e7257610e71610fdd565b5b828201905092915050565b6000610e8882610e8f565b9050919050565b600073ffffffffffffffffffffffffffffffffffffffff82169050919050565b6000819050919050565b6000610ec482610ecb565b9050919050565b6000610ed682610edd565b9050919050565b6000610ee882610e8f565b9050919050565b82818337600083830152505050565b60005b83811015610f1c578082015181840152602081019050610f01565b83811115610f2b576000848401525b50505050565b60006002820490506001821680610f4957607f821691505b60208210811415610f5d57610f5c61100c565b5b50919050565b610f6c8261106a565b810181811067ffffffffffffffff82111715610f8b57610f8a61103b565b5b80604052505050565b6000610f9f82610eaf565b91507fffffffffffffffffffffffffffffffffffffffffffffffffffffffffffffffff821415610fd257610fd1610fdd565b5b600182019050919050565b7f4e487b7100000000000000000000000000000000000000000000000000000000600052601160045260246000fd5b7f4e487b7100000000000000000000000000000000000000000000000000000000600052602260045260246000fd5b7f4e487b7100000000000000000000000000000000000000000000000000000000600052604160045260246000fd5b6000601f19601f8301169050919050565b7f596f752063616e6e6f7420646f6e61746520746f20796f757273656c66000000600082015250565b7f4f776e61626c653a206e6577206f776e657220697320746865207a65726f206160008201527f6464726573730000000000000000000000000000000000000000000000000000602082015250565b7f536f6e672068617368206973206e6f742076616c696400000000000000000000600082015250565b7f4f776e61626c653a2063616c6c6572206973206e6f7420746865206f776e6572600082015250565b50565b7f6661696c656420746f2073656e64204574686572000000000000000000000000600082015250565b61117a81610e7d565b811461118557600080fd5b50565b61119181610eaf565b811461119c57600080fd5b5056fea26469706673582212206b5bbff19202b41c001aa669fd9a460ed95ed734e3529a70fd551ab7a90da96964736f6c63430008040033",
  "linkReferences": {},
  "deployedLinkReferences": {}
}